:020000040000FA
:02000000532883
:040002000034003492
:08000800A000030EA1000E2070
:10001000210E8300A00E200E0B110900A50AA51CBD
:100020001428251C34284428251C2528172800308E
:10003000850087002308A5208500230893208700DA
:100040008515051506118614080000308500870007
:100050002408A52085002408932087008515051510
:1000600006158610A20A08000030850087002908BE
:10007000A5208500290893208700A21F0514851557
:100080000511061586140800003085008700280831
:10009000A5208500280893208700851105150615E1
:1000A0008614A20A08008316003085008700F93004
:1000B000860007309F000230810083128B168B1759
:1000C0006128A201A301A401A801A901F430220220
:1000D000031D8328A201A40A0A302402031D8328D9
:1000E000A401A30A06302302031D8328A301A90A41
:1000F0000A302902031D8328A901A80A0630280214
:100100000319A8018328861A862889288619662853
:100110008B2805126128061A8B2883280030870057
:100120008613803087000F398207E7346034C33488
:10013000E2346434A6342734E434E734E43402345B
:1001400000341A3400349E348E340F398207103450
:100150001034123412341234123412341034123473
:100160001234123410341A3411349E349E347D30DB
:10017000B000C830B1000000B10BBB28B00BB928EB
:02018000080075
:00000001FF
